01INTERDOS                      062580001041278002                              00000000000001                        11111102122026JMETER                                              MXN00000000000000INT940815E15 145580007001301018
01INTERDOS                      062580001041278002                              00000000000001                        11111102122026JMETER                                              MXN00000000000000INT940815E15 145580007001301018
01INTERDOS                      062580001041278002                              00000000000001                        11111102122026JMETER                                              MXN00000000000000INT940815E15 145580007001301018
01INTERDOS                      062580001041278002                              00000000000001                        11111102122026JMETER                                              MXN00000000000000INT940815E15 145580007001301018
01INTERDOS                      062580001041278002                              00000000000001                        11111102122026JMETER                                              MXN00000000000000INT940815E15 145580007001301018
01INTERDOS                      062580001041278002                              00000000000001                        11111102122026JMETER                                              MXN00000000000000INT940815E15 145580007001301018
01INTERDOS                      062580001041278002                              00000000000001                        11111102122026JMETER                                              MXN00000000000000INT940815E15 145580007001301018
01INTERDOS                      062580001041278002                              00000000000001                        11111102122026JMETER                                              MXN00000000000000INT940815E15 145580007001301018
