01MARIA FERNANDA OROZCO IÑIGUEZ 012180015627742398                              00000000000001                       1282026JMETER                                                      MXP00000000000000OOIF960213NH9145580030230001020
01COMERDEL SA DE CV             012320001028142853                              00000000000001                       1282026JMETER                                                      MXP00000000000000COM151007CP6 145580030230001020
01LOSEN SA DE CV                002320027455126180                              00000000000001                       1282026JMETER                                                      MXP00000000000000LOS031002EM7 145580030230001020
01LUCERO BERENICE GARCIA PEREZ  012320015981774781                              00000000000001                       1282026JMETER                                                      MXP00000000000000GAPL900804QP9145580030230001020
01PROVEEDOR DE SOLDADURAS Y ALEA012320001893089468                              00000000000001                       1282026JMETER                                                      MXP00000000000000PSA091030M97 145580030230001020
01CENTRO DE VALIDACIONES Y CALIB012320004490043781                              00000000000001                       1282026JMETER                                                      MXP00000000000000CVC911116U50 145580030230001020
01ARTURO RODRIGUEZ GUERRA       044320010066403704                              00000000000001                       1282026JMETER                                                      MXP00000000000000ROGA671025J78145580030230001020
01VICTOR SANCHEZ SALAZAR        012320015481206199                              00000000000001                       1282026JMETER                                                      MXP00000000000000ND           145580030230001020
