01PROVEEDOR DE SOLDADURAS Y ALEA012320001893089468                              00000000000001                       1282026JMETER                                                      MXP00000000000000PSA091030M97 145580030230001020
01PROVEEDOR DE SOLDADURAS Y ALEA012320001893089468                              00000000000001                       1282026JMETER                                                      MXP00000000000000PSA091030M97 145580030230001020
01PROVEEDOR DE SOLDADURAS Y ALEA012320001893089468                              00000000000001                       1282026JMETER                                                      MXP00000000000000PSA091030M97 145580030230001020
01PROVEEDOR DE SOLDADURAS Y ALEA012320001893089468                              00000000000001                       1282026JMETER                                                      MXP00000000000000PSA091030M97 145580030230001020
01PROVEEDOR DE SOLDADURAS Y ALEA012320001893089468                              00000000000001                       1282026JMETER                                                      MXP00000000000000PSA091030M97 145580030230001020
01PROVEEDOR DE SOLDADURAS Y ALEA012320001893089468                              00000000000001                       1282026JMETER                                                      MXP00000000000000PSA091030M97 145580030230001020
01PROVEEDOR DE SOLDADURAS Y ALEA012320001893089468                              00000000000001                       1282026JMETER                                                      MXP00000000000000PSA091030M97 145580030230001020
01PROVEEDOR DE SOLDADURAS Y ALEA012320001893089468                              00000000000001                       1282026JMETER                                                      MXP00000000000000PSA091030M97 145580030230001020
01PROVEEDOR DE SOLDADURAS Y ALEA012320001893089468                              00000000000001                       1282026JMETER                                                      MXP00000000000000PSA091030M97 145580030230001020
01PROVEEDOR DE SOLDADURAS Y ALEA012320001893089468                              00000000000001                       1282026JMETER                                                      MXP00000000000000PSA091030M97 145580030230001020
