01TALLER DE JOEL CONTRERAS DENA 072060002177662923                              00000000000001                        11111102122026JMETER                                              MXN00000000000000CODJ800112PQ0145580007048601014
01TALLER DE JOEL CONTRERAS DENA 072060002177662923                              00000000000001                        11111102122026JMETER                                              MXN00000000000000CODJ800112PQ0145580007048601014
01TALLER DE JOEL CONTRERAS DENA 072060002177662923                              00000000000001                        11111102122026JMETER                                              MXN00000000000000CODJ800112PQ0145580007048601014
01TALLER DE JOEL CONTRERAS DENA 072060002177662923                              00000000000001                        11111102122026JMETER                                              MXN00000000000000CODJ800112PQ0145580007048601014
01TALLER DE JOEL CONTRERAS DENA 072060002177662923                              00000000000001                        11111102122026JMETER                                              MXN00000000000000CODJ800112PQ0145580007048601014
01TALLER DE JOEL CONTRERAS DENA 072060002177662923                              00000000000001                        11111102122026JMETER                                              MXN00000000000000CODJ800112PQ0145580007048601014
01TALLER DE JOEL CONTRERAS DENA 072060002177662923                              00000000000001                        11111102122026JMETER                                              MXN00000000000000CODJ800112PQ0145580007048601014
01TALLER DE JOEL CONTRERAS DENA 072060002177662923                              00000000000001                        11111102122026JMETER                                              MXN00000000000000CODJ800112PQ0145580007048601014
